{
  "contractName": "PowerGen",
  "abi": [
    {
      "anonymous": false,
      "inputs": [
        {
          "indexed": false,
          "internalType": "int256",
          "name": "ActivePower",
          "type": "int256"
        },
        {
          "indexed": false,
          "internalType": "int256",
          "name": "ReactivePower",
          "type": "int256"
        }
      ],
      "name": "PowerChange",
      "type": "event"
    },
    {
      "inputs": [
        {
          "internalType": "int256",
          "name": "ActivePwr",
          "type": "int256"
        },
        {
          "internalType": "int256",
          "name": "ReactivePwr",
          "type": "int256"
        }
      ],
      "name": "setGenPwr",
      "outputs": [],
      "stateMutability": "nonpayable",
      "type": "function"
    },
    {
      "inputs": [],
      "name": "getGen",
      "outputs": [
        {
          "components": [
            {
              "internalType": "int256",
              "name": "ActivePower",
              "type": "int256"
            },
            {
              "internalType": "int256",
              "name": "ReactivePower",
              "type": "int256"
            }
          ],
          "internalType": "struct PowerGen.Generator",
          "name": "",
          "type": "tuple"
        }
      ],
      "stateMutability": "view",
      "type": "function",
      "constant": true
    }
  ],
  "bytecode": "0x608060405234801561001057600080fd5b5061012d806100206000396000f3fe6080604052348015600f57600080fd5b506004361060325760003560e01c8063a5ae65ba146037578063a79f3ce614607e575b600080fd5b604080518082018252600080825260209182018190528251808401909352548252600154908201526040805182518152602092830151928101929092520160405180910390f35b608d608936600460d6565b608f565b005b6000829055600181905560408051838152602081018390527f787c69bba77ac57019bf938adb86e4381af6fc9dd8d4128d4d81637963d33276910160405180910390a15050565b6000806040838503121560e857600080fd5b5050803592602090910135915056fea2646970667358221220cff5ae90d672325b5efd1d71a24fa86f649f168c73a3f1bf0d39e52954b6261e64736f6c634300080d0033",
  "immutableReferences": {},
  "source": "// SPDX-License-Identifier: MIT\r\n\r\npragma solidity ^0.8.0; \r\n\r\ncontract PowerGen{\r\n    event PowerChange(int ActivePower, int ReactivePower);\r\n    \r\n    struct Generator{ \r\n        int ActivePower;\r\n        int ReactivePower;\r\n    }\r\n\r\n    Generator Gen1; \r\n\r\n    function setGenPwr(int ActivePwr, int ReactivePwr) public{\r\n        Gen1.ActivePower = ActivePwr;\r\n        Gen1.ReactivePower = ReactivePwr;\r\n        emit PowerChange(ActivePwr, ReactivePwr);\r\n    }\r\n \r\n    function getGen() public view returns(Generator memory){\r\n        return Gen1;\r\n    }\r\n\r\n}\r\n",
  "sourcePath": "D:\\Github Projects\\Matblockpy\\examples\\IEEE4Bus-blockchainGen\\contracts\\PowerGen.sol",
  "compiler": {
    "name": "solc",
    "version": "0.8.13+commit.abaa5c0e.Emscripten.clang"
  },
  "schemaVersion": "3.4.7",
  "updatedAt": "2024-03-27T21:38:02.471Z",
  "networkType": "ethereum",
  "devdoc": {
    "kind": "dev",
    "methods": {},
    "version": 1
  },
  "userdoc": {
    "kind": "user",
    "methods": {},
    "version": 1
  }
}