{
  "contractName": "DLEM",
  "abi": [
    {
      "inputs": [],
      "stateMutability": "nonpayable",
      "type": "constructor"
    },
    {
      "anonymous": false,
      "inputs": [
        {
          "indexed": true,
          "internalType": "address",
          "name": "owner",
          "type": "address"
        },
        {
          "indexed": true,
          "internalType": "address",
          "name": "spender",
          "type": "address"
        },
        {
          "indexed": false,
          "internalType": "uint256",
          "name": "value",
          "type": "uint256"
        }
      ],
      "name": "Approval",
      "type": "event"
    },
    {
      "anonymous": false,
      "inputs": [
        {
          "indexed": false,
          "internalType": "uint256[24]",
          "name": "MCP",
          "type": "uint256[24]"
        },
        {
          "indexed": false,
          "internalType": "uint256[24]",
          "name": "MCQ",
          "type": "uint256[24]"
        },
        {
          "indexed": false,
          "internalType": "uint256",
          "name": "etime",
          "type": "uint256"
        }
      ],
      "name": "LEMend",
      "type": "event"
    },
    {
      "anonymous": false,
      "inputs": [
        {
          "indexed": false,
          "internalType": "uint256",
          "name": "stime",
          "type": "uint256"
        },
        {
          "indexed": false,
          "internalType": "uint256",
          "name": "etime",
          "type": "uint256"
        }
      ],
      "name": "LEMstart",
      "type": "event"
    },
    {
      "anonymous": false,
      "inputs": [
        {
          "components": [
            {
              "internalType": "uint256",
              "name": "bid_num",
              "type": "uint256"
            },
            {
              "internalType": "address",
              "name": "bidder",
              "type": "address"
            },
            {
              "internalType": "string",
              "name": "ipfsCid",
              "type": "string"
            },
            {
              "internalType": "bytes32",
              "name": "dataHash",
              "type": "bytes32"
            },
            {
              "internalType": "bool",
              "name": "valid",
              "type": "bool"
            }
          ],
          "indexed": false,
          "internalType": "struct DLEM.Bid",
          "name": "bid",
          "type": "tuple"
        }
      ],
      "name": "NewBid",
      "type": "event"
    },
    {
      "anonymous": false,
      "inputs": [
        {
          "indexed": true,
          "internalType": "address",
          "name": "from",
          "type": "address"
        },
        {
          "indexed": true,
          "internalType": "address",
          "name": "to",
          "type": "address"
        },
        {
          "indexed": false,
          "internalType": "uint256",
          "name": "value",
          "type": "uint256"
        }
      ],
      "name": "Transfer",
      "type": "event"
    },
    {
      "inputs": [
        {
          "internalType": "uint256",
          "name": "",
          "type": "uint256"
        }
      ],
      "name": "Transactions",
      "outputs": [
        {
          "internalType": "address",
          "name": "owner",
          "type": "address"
        },
        {
          "internalType": "address",
          "name": "counterparty",
          "type": "address"
        },
        {
          "internalType": "uint256",
          "name": "tslot",
          "type": "uint256"
        },
        {
          "internalType": "uint256",
          "name": "quantity",
          "type": "uint256"
        },
        {
          "internalType": "uint256",
          "name": "price",
          "type": "uint256"
        },
        {
          "internalType": "bool",
          "name": "settled",
          "type": "bool"
        }
      ],
      "stateMutability": "view",
      "type": "function",
      "constant": true
    },
    {
      "inputs": [
        {
          "internalType": "address",
          "name": "owner",
          "type": "address"
        },
        {
          "internalType": "address",
          "name": "spender",
          "type": "address"
        }
      ],
      "name": "allowance",
      "outputs": [
        {
          "internalType": "uint256",
          "name": "",
          "type": "uint256"
        }
      ],
      "stateMutability": "view",
      "type": "function",
      "constant": true
    },
    {
      "inputs": [
        {
          "internalType": "address",
          "name": "spender",
          "type": "address"
        },
        {
          "internalType": "uint256",
          "name": "amount",
          "type": "uint256"
        }
      ],
      "name": "approve",
      "outputs": [
        {
          "internalType": "bool",
          "name": "",
          "type": "bool"
        }
      ],
      "stateMutability": "nonpayable",
      "type": "function"
    },
    {
      "inputs": [
        {
          "internalType": "address",
          "name": "account",
          "type": "address"
        }
      ],
      "name": "balanceOf",
      "outputs": [
        {
          "internalType": "uint256",
          "name": "",
          "type": "uint256"
        }
      ],
      "stateMutability": "view",
      "type": "function",
      "constant": true
    },
    {
      "inputs": [
        {
          "internalType": "uint256",
          "name": "",
          "type": "uint256"
        }
      ],
      "name": "bids",
      "outputs": [
        {
          "internalType": "uint256",
          "name": "bid_num",
          "type": "uint256"
        },
        {
          "internalType": "address",
          "name": "bidder",
          "type": "address"
        },
        {
          "internalType": "string",
          "name": "ipfsCid",
          "type": "string"
        },
        {
          "internalType": "bytes32",
          "name": "dataHash",
          "type": "bytes32"
        },
        {
          "internalType": "bool",
          "name": "valid",
          "type": "bool"
        }
      ],
      "stateMutability": "view",
      "type": "function",
      "constant": true
    },
    {
      "inputs": [],
      "name": "decimals",
      "outputs": [
        {
          "internalType": "uint8",
          "name": "",
          "type": "uint8"
        }
      ],
      "stateMutability": "view",
      "type": "function",
      "constant": true
    },
    {
      "inputs": [
        {
          "internalType": "address",
          "name": "spender",
          "type": "address"
        },
        {
          "internalType": "uint256",
          "name": "subtractedValue",
          "type": "uint256"
        }
      ],
      "name": "decreaseAllowance",
      "outputs": [
        {
          "internalType": "bool",
          "name": "",
          "type": "bool"
        }
      ],
      "stateMutability": "nonpayable",
      "type": "function"
    },
    {
      "inputs": [
        {
          "internalType": "uint256",
          "name": "",
          "type": "uint256"
        },
        {
          "internalType": "uint256",
          "name": "",
          "type": "uint256"
        }
      ],
      "name": "energy_matches",
      "outputs": [
        {
          "internalType": "address",
          "name": "prosumer",
          "type": "address"
        },
        {
          "internalType": "address",
          "name": "consumer",
          "type": "address"
        },
        {
          "internalType": "uint256",
          "name": "demand",
          "type": "uint256"
        },
        {
          "internalType": "uint256",
          "name": "amount",
          "type": "uint256"
        },
        {
          "internalType": "uint256",
          "name": "m_amount",
          "type": "uint256"
        },
        {
          "internalType": "uint256",
          "name": "price",
          "type": "uint256"
        },
        {
          "internalType": "enum DLEM.Billstatus",
          "name": "billed",
          "type": "uint8"
        }
      ],
      "stateMutability": "view",
      "type": "function",
      "constant": true
    },
    {
      "inputs": [
        {
          "internalType": "address",
          "name": "spender",
          "type": "address"
        },
        {
          "internalType": "uint256",
          "name": "addedValue",
          "type": "uint256"
        }
      ],
      "name": "increaseAllowance",
      "outputs": [
        {
          "internalType": "bool",
          "name": "",
          "type": "bool"
        }
      ],
      "stateMutability": "nonpayable",
      "type": "function"
    },
    {
      "inputs": [],
      "name": "name",
      "outputs": [
        {
          "internalType": "string",
          "name": "",
          "type": "string"
        }
      ],
      "stateMutability": "view",
      "type": "function",
      "constant": true
    },
    {
      "inputs": [],
      "name": "symbol",
      "outputs": [
        {
          "internalType": "string",
          "name": "",
          "type": "string"
        }
      ],
      "stateMutability": "view",
      "type": "function",
      "constant": true
    },
    {
      "inputs": [],
      "name": "totalSupply",
      "outputs": [
        {
          "internalType": "uint256",
          "name": "",
          "type": "uint256"
        }
      ],
      "stateMutability": "view",
      "type": "function",
      "constant": true
    },
    {
      "inputs": [
        {
          "internalType": "address",
          "name": "to",
          "type": "address"
        },
        {
          "internalType": "uint256",
          "name": "amount",
          "type": "uint256"
        }
      ],
      "name": "transfer",
      "outputs": [
        {
          "internalType": "bool",
          "name": "",
          "type": "bool"
        }
      ],
      "stateMutability": "nonpayable",
      "type": "function"
    },
    {
      "inputs": [
        {
          "internalType": "address",
          "name": "from",
          "type": "address"
        },
        {
          "internalType": "address",
          "name": "to",
          "type": "address"
        },
        {
          "internalType": "uint256",
          "name": "amount",
          "type": "uint256"
        }
      ],
      "name": "transferFrom",
      "outputs": [
        {
          "internalType": "bool",
          "name": "",
          "type": "bool"
        }
      ],
      "stateMutability": "nonpayable",
      "type": "function"
    },
    {
      "inputs": [
        {
          "internalType": "string",
          "name": "_id",
          "type": "string"
        },
        {
          "internalType": "bytes32",
          "name": "_hash",
          "type": "bytes32"
        },
        {
          "internalType": "enum DLEM.Role",
          "name": "_role",
          "type": "uint8"
        }
      ],
      "name": "Register",
      "outputs": [],
      "stateMutability": "nonpayable",
      "type": "function"
    },
    {
      "inputs": [],
      "name": "startLEM",
      "outputs": [],
      "stateMutability": "nonpayable",
      "type": "function"
    },
    {
      "inputs": [
        {
          "internalType": "int256[24]",
          "name": "_amount",
          "type": "int256[24]"
        },
        {
          "internalType": "uint256[24]",
          "name": "_price",
          "type": "uint256[24]"
        },
        {
          "internalType": "string",
          "name": "ipfsCid",
          "type": "string"
        }
      ],
      "name": "submitBid",
      "outputs": [],
      "stateMutability": "nonpayable",
      "type": "function"
    },
    {
      "inputs": [
        {
          "internalType": "uint256",
          "name": "bid_num",
          "type": "uint256"
        },
        {
          "internalType": "int256[24]",
          "name": "_amount",
          "type": "int256[24]"
        },
        {
          "internalType": "uint256[24]",
          "name": "_price",
          "type": "uint256[24]"
        },
        {
          "internalType": "string",
          "name": "newipfsCid",
          "type": "string"
        }
      ],
      "name": "RequestBidUpdate",
      "outputs": [],
      "stateMutability": "nonpayable",
      "type": "function"
    },
    {
      "inputs": [],
      "name": "closeLEM",
      "outputs": [],
      "stateMutability": "nonpayable",
      "type": "function"
    },
    {
      "inputs": [
        {
          "internalType": "uint256[24]",
          "name": "_rprice",
          "type": "uint256[24]"
        }
      ],
      "name": "setRetailPrice",
      "outputs": [],
      "stateMutability": "nonpayable",
      "type": "function"
    },
    {
      "inputs": [
        {
          "internalType": "uint256",
          "name": "tslot",
          "type": "uint256"
        }
      ],
      "name": "getRetailPrice",
      "outputs": [
        {
          "internalType": "uint256",
          "name": "",
          "type": "uint256"
        }
      ],
      "stateMutability": "view",
      "type": "function",
      "constant": true
    },
    {
      "inputs": [
        {
          "internalType": "uint256[24]",
          "name": "mcp",
          "type": "uint256[24]"
        }
      ],
      "name": "setLastMCP",
      "outputs": [],
      "stateMutability": "nonpayable",
      "type": "function"
    },
    {
      "inputs": [
        {
          "internalType": "uint256[24]",
          "name": "mcq",
          "type": "uint256[24]"
        }
      ],
      "name": "setLastMCQ",
      "outputs": [],
      "stateMutability": "nonpayable",
      "type": "function"
    },
    {
      "inputs": [],
      "name": "getBids",
      "outputs": [
        {
          "components": [
            {
              "internalType": "uint256",
              "name": "bid_num",
              "type": "uint256"
            },
            {
              "internalType": "address",
              "name": "bidder",
              "type": "address"
            },
            {
              "internalType": "string",
              "name": "ipfsCid",
              "type": "string"
            },
            {
              "internalType": "bytes32",
              "name": "dataHash",
              "type": "bytes32"
            },
            {
              "internalType": "bool",
              "name": "valid",
              "type": "bool"
            }
          ],
          "internalType": "struct DLEM.Bid[]",
          "name": "",
          "type": "tuple[]"
        }
      ],
      "stateMutability": "view",
      "type": "function",
      "constant": true
    },
    {
      "inputs": [],
      "name": "getBidsLength",
      "outputs": [
        {
          "internalType": "uint256",
          "name": "",
          "type": "uint256"
        }
      ],
      "stateMutability": "view",
      "type": "function",
      "constant": true
    },
    {
      "inputs": [
        {
          "internalType": "address",
          "name": "_owner",
          "type": "address"
        },
        {
          "internalType": "address",
          "name": "_counterparty",
          "type": "address"
        },
        {
          "internalType": "uint256",
          "name": "_tslot",
          "type": "uint256"
        },
        {
          "internalType": "uint256",
          "name": "_quantity",
          "type": "uint256"
        },
        {
          "internalType": "uint256",
          "name": "_price",
          "type": "uint256"
        }
      ],
      "name": "addTransaction",
      "outputs": [],
      "stateMutability": "nonpayable",
      "type": "function"
    },
    {
      "inputs": [],
      "name": "getTransactions",
      "outputs": [
        {
          "components": [
            {
              "internalType": "address",
              "name": "owner",
              "type": "address"
            },
            {
              "internalType": "address",
              "name": "counterparty",
              "type": "address"
            },
            {
              "internalType": "uint256",
              "name": "tslot",
              "type": "uint256"
            },
            {
              "internalType": "uint256",
              "name": "quantity",
              "type": "uint256"
            },
            {
              "internalType": "uint256",
              "name": "price",
              "type": "uint256"
            },
            {
              "internalType": "bool",
              "name": "settled",
              "type": "bool"
            }
          ],
          "internalType": "struct DLEM.Transaction[]",
          "name": "",
          "type": "tuple[]"
        }
      ],
      "stateMutability": "view",
      "type": "function",
      "constant": true
    }
  ],
  "bytecode": "0x60806040523480156200001157600080fd5b50604051806040016040528060088152602001672622a6ba37b5b2b760c11b8152506040518060400160405280600381526020016213115560ea1b81525081600390805190602001906200006792919062000191565b5080516200007d90600490602084019062000191565b5050600780546001600160a01b03191633908117909155620000c59150620000a3601290565b620000b090600a6200034c565b620000bf906298968062000364565b620000cb565b620003dd565b6001600160a01b038216620001265760405162461bcd60e51b815260206004820152601f60248201527f45524332303a206d696e7420746f20746865207a65726f206164647265737300604482015260640160405180910390fd5b80600260008282546200013a919062000386565b90915550506001600160a01b038216600081815260208181526040808320805486019055518481527fddf252ad1be2c89b69c2b068fc378daa952ba7f163c4a11628f55a4df523b3ef910160405180910390a35050565b8280546200019f90620003a1565b90600052602060002090601f016020900481019282620001c357600085556200020e565b82601f10620001de57805160ff19168380011785556200020e565b828001600101855582156200020e579182015b828111156200020e578251825591602001919060010190620001f1565b506200021c92915062000220565b5090565b5b808211156200021c576000815560010162000221565b634e487b7160e01b600052601160045260246000fd5b600181815b808511156200028e57816000190482111562000272576200027262000237565b808516156200028057918102915b93841c939080029062000252565b509250929050565b600082620002a75750600162000346565b81620002b65750600062000346565b8160018114620002cf5760028114620002da57620002fa565b600191505062000346565b60ff841115620002ee57620002ee62000237565b50506001821b62000346565b5060208310610133831016604e8410600b84101617156200031f575081810a62000346565b6200032b83836200024d565b806000190482111562000342576200034262000237565b0290505b92915050565b60006200035d60ff84168362000296565b9392505050565b600081600019048311821515161562000381576200038162000237565b500290565b600082198211156200039c576200039c62000237565b500190565b600181811c90821680620003b657607f821691505b602082108103620003d757634e487b7160e01b600052602260045260246000fd5b50919050565b6124ba80620003ed6000396000f3fe608060405234801561001057600080fd5b50600436106101a95760003560e01c806378551b40116100f9578063acc8d3f311610097578063d879914a11610071578063d879914a1461053a578063dd62ed3e14610542578063e8d9878f14610555578063ea41b6a11461055d57600080fd5b8063acc8d3f3146104ff578063b81c78ec14610512578063d265b0ec1461052757600080fd5b806396f8ff5a116100d357806396f8ff5a146103565780639cca238e14610369578063a457c2d7146104d9578063a9059cbb146104ec57600080fd5b806378551b401461032657806383920e901461033957806395d89b411461034e57600080fd5b806334008b16116101665780634423c5f1116101405780634423c5f1146102b357806361562dcc146102d757806370a08231146102ea57806375e466911461031357600080fd5b806334008b161461022d578063346e54af1461027a57806339509351146102a057600080fd5b806306fdde03146101ae578063095ea7b3146101cc57806318160ddd146101ef578063235e957a1461020157806323b872dd1461020b578063313ce5671461021e575b600080fd5b6101b6610570565b6040516101c39190611c38565b60405180910390f35b6101df6101da366004611c6e565b610602565b60405190151581526020016101c3565b6002545b6040519081526020016101c3565b61020961061c565b005b6101df610219366004611c98565b610655565b604051601281526020016101c3565b61024061023b366004611cd4565b610679565b604080516001600160a01b0397881681529690951660208701529385019290925260608401526080830152151560a082015260c0016101c3565b61028d610288366004611ced565b6106cf565b6040516101c39796959493929190611d25565b6101df6102ae366004611c6e565b610739565b6102c66102c1366004611cd4565b61075b565b6040516101c3959493929190611d89565b6102096102e5366004611e5d565b610834565b6101f36102f8366004611e7a565b6001600160a01b031660009081526020819052604090205490565b610209610321366004611f22565b6108b5565b610209610334366004611e5d565b610bef565b610341610c6c565b6040516101c39190611f85565b6101b6610d14565b610209610364366004611e5d565b610d23565b61020961037736600461200b565b6040805160c0810182526001600160a01b039687168152948616602086019081529085019384526060850192835260808501918252600060a0860181815260068054600181018255928190529651919096027ff652222313e28459528d920b65115c16c04f3efc82aaedc97be59f3f377c0d3f810180549289166001600160a01b031993841617905591517ff652222313e28459528d920b65115c16c04f3efc82aaedc97be59f3f377c0d40830180549190981691161790955591517ff652222313e28459528d920b65115c16c04f3efc82aaedc97be59f3f377c0d41850155517ff652222313e28459528d920b65115c16c04f3efc82aaedc97be59f3f377c0d42840155517ff652222313e28459528d920b65115c16c04f3efc82aaedc97be59f3f377c0d43830155517ff652222313e28459528d920b65115c16c04f3efc82aaedc97be59f3f377c0d44909101805491151560ff19909216919091179055565b6101df6104e7366004611c6e565b610de9565b6101df6104fa366004611c6e565b610e64565b6101f361050d366004611cd4565b610e72565b61051a610e99565b6040516101c39190612058565b6102096105353660046120fa565b610fc0565b6005546101f3565b6101f3610550366004612159565b611195565b6102096111c0565b61020961056b36600461218c565b6113ab565b60606003805461057f906121f9565b80601f01602080910402602001604051908101604052809291908181526020018280546105ab906121f9565b80156105f85780601f106105cd576101008083540402835291602001916105f8565b820191906000526020600020905b8154815290600101906020018083116105db57829003601f168201915b5050505050905090565b600033610610818585611651565b60019150505b92915050565b6007546001600160a01b0316331461064f5760405162461bcd60e51b815260040161064690612233565b60405180910390fd5b42600b55565b600033610663858285611775565b61066e8585856117ef565b506001949350505050565b6006818154811061068957600080fd5b60009182526020909120600690910201805460018201546002830154600384015460048501546005909501546001600160a01b0394851696509390921693909260ff1686565b603e60205281600052604060002081815481106106eb57600080fd5b600091825260209091206007909102018054600182015460028301546003840154600485015460058601546006909601546001600160a01b0395861698509490931695509093909260ff1687565b60003361061081858561074c8383611195565b6107569190612274565b611651565b6005818154811061076b57600080fd5b60009182526020909120600590910201805460018201546002830180549294506001600160a01b0390911692916107a1906121f9565b80601f01602080910402602001604051908101604052809291908181526020018280546107cd906121f9565b801561081a5780601f106107ef5761010080835404028352916020019161081a565b820191906000526020600020905b8154815290600101906020018083116107fd57829003601f168201915b50505050600383015460049093015491929160ff16905085565b6007546001600160a01b0316331461085e5760405162461bcd60e51b815260040161064690612233565b60005b61086d6001601861228c565b81116108b157818160188110610885576108856122a3565b6020020151600c826018811061089d5761089d6122a3565b0155806108a9816122b9565b915050610861565b5050565b600b544211156109075760405162461bcd60e51b815260206004820152601a60248201527f43616e6e6f74206269642077697468204c454d20636c6f7365640000000000006044820152606401610646565b3360009081526009602052604090205460ff166109665760405162461bcd60e51b815260206004820152601a60248201527f41646472657373206d75737420626520726567697374657265640000000000006044820152606401610646565b3360009081526008602052604090205460ff16156109bc5760405162461bcd60e51b81526020600482015260136024820152721059191c995cdcc8185b1c9958591e48189a59606a1b6044820152606401610646565b600554600090819081036109d257506000610a13565b600580546109e29060019061228c565b815481106109f2576109f26122a3565b9060005260206000209060050201600001546001610a109190612274565b90505b60005b610a226001601861228c565b8111610ab9576000868260188110610a3c57610a3c6122a3565b60200201511215610aa757610a53600360126122d2565b610a5e90600a6123d9565b610a6782610e72565b610a86888460188110610a7c57610a7c6122a3565b6020020151611993565b610a9091906123e8565b610a9a91906123e8565b610aa49084612274565b92505b80610ab1816122b9565b915050610a16565b5060008486604051602001610acf929190612407565b60408051808303601f19018152828252805160209182012060a0840183528584523382850190815292840188815260608501829052600160808601819052600580549182018155600081905286517f036b6384b5eca791c62761152d0c79bb0604c104a5fb6f4eb0703f3154bb3db09290910291820190815594517f036b6384b5eca791c62761152d0c79bb0604c104a5fb6f4eb0703f3154bb3db1820180546001600160a01b0319166001600160a01b0390921691909117905590518051929650610bc2937f036b6384b5eca791c62761152d0c79bb0604c104a5fb6f4eb0703f3154bb3db2909201929101906119af565b50606082015160038201556080909101516004909101805460ff1916911515919091179055505050505050565b6007546001600160a01b03163314610c195760405162461bcd60e51b815260040161064690612233565b60005b610c286001601861228c565b81116108b157818160188110610c4057610c406122a3565b602002015160248260188110610c5857610c586122a3565b015580610c64816122b9565b915050610c1c565b60606006805480602002602001604051908101604052809291908181526020016000905b82821015610d0b5760008481526020908190206040805160c0810182526006860290920180546001600160a01b0390811684526001808301549091168486015260028201549284019290925260038101546060840152600481015460808401526005015460ff16151560a08301529083529092019101610c90565b50505050905090565b60606004805461057f906121f9565b6007546001600160a01b03163314610d4d5760405162461bcd60e51b815260040161064690612233565b6007546001600160a01b03163314610d6457600080fd5b603c5415610d7857610d78603c6000611a2f565b60005b610d876001601861228c565b81116108b157818160188110610d9f57610d9f6122a3565b6020020151603c80546001810182556000919091527fc6bb06cb7f92603de181bf256cd16846b93b752a170ff24824098b31aa008a7e015580610de1816122b9565b915050610d7b565b60003381610df78286611195565b905083811015610e575760405162461bcd60e51b815260206004820152602560248201527f45524332303a2064656372656173656420616c6c6f77616e63652062656c6f77604482015264207a65726f60d81b6064820152608401610646565b61066e8286868403611651565b6000336106108185856117ef565b6000603c8281548110610e8757610e876122a3565b90600052602060002001549050919050565b60606005805480602002602001604051908101604052809291908181526020016000905b82821015610d0b5760008481526020908190206040805160a081018252600586029092018054835260018101546001600160a01b03169383019390935260028301805492939291840191610f10906121f9565b80601f0160208091040260200160405190810160405280929190818152602001828054610f3c906121f9565b8015610f895780601f10610f5e57610100808354040283529160200191610f89565b820191906000526020600020905b815481529060010190602001808311610f6c57829003601f168201915b5050509183525050600382015460208083019190915260049092015460ff1615156040909101529082526001929092019101610ebd565b610fcb42603c612274565b600b541161100b5760405162461bcd60e51b815260206004820152600d60248201526c13585c9ad95d0818db1bdcd959609a1b6044820152606401610646565b3360009081526009602052604090205460ff161561106b5760405162461bcd60e51b815260206004820152601a60248201527f4164647265737320616c726561647920726567697374657265640000000000006044820152606401610646565b6040518060800160405280336001600160a01b031681526020018481526020018381526020018260018111156110a3576110a3611d0f565b9052336000908152603d60209081526040909120825181546001600160a01b0319166001600160a01b0390911617815582820151805191926110ed926001850192909101906119af565b5060408201516002820155606082015160038201805460ff19166001838181111561111a5761111a611d0f565b021790555050600a805460018181019092557fc65a7bb8d6351c1cf70c95a316cc6a92839c986682d98bc35f958f4883f9d2a80180546001600160a01b031916339081179091556000908152600860209081526040808320805460ff1990811690915560099092529091208054909116909117905550505050565b6001600160a01b03918216600090815260016020908152604080832093909416825291909152205490565b6007546001600160a01b031633146111ea5760405162461bcd60e51b815260040161064690612233565b60005b600a5481101561130157603d6000600a838154811061120e5761120e6122a3565b60009182526020808320909101546001600160a01b03168352820192909252604001812080546001600160a01b03191681559061124e6001830182611a50565b506000600282018190556003909101805460ff19169055600a805460089291908490811061127e5761127e6122a3565b60009182526020808320909101546001600160a01b031683528201929092526040018120805460ff19169055600a80546009929190849081106112c3576112c36122a3565b60009182526020808320909101546001600160a01b031683528201929092526040019020805460ff19169055806112f9816122b9565b9150506111ed565b5061130e600a6000611a2f565b61131a60056000611a8a565b61132660066000611aab565b60005b601881101561135b576000818152603e6020526040812061134991611acc565b80611353816122b9565b915050611329565b506107086113694282612274565b600b8190556040805142815260208101929092527fef662b01ebc5d8888ad6cf825d6daad828032803c2f37edc17c8db1956b9ab11910160405180910390a150565b3360009081526008602052604090205460ff1615156001146114045760405162461bcd60e51b81526020600482015260126024820152711059191c995cdcc81b9bdd08189a5919195960721b6044820152606401610646565b60001960005b600554811015611459578560058281548110611428576114286122a3565b9060005260206000209060050201600001540361144757809150611459565b80611451816122b9565b91505061140a565b50600081121561149b5760405162461bcd60e51b815260206004820152600d60248201526c109a59081b9bdd08199bdd5b99609a1b6044820152606401610646565b6000805b6114ab6001601861228c565b81116115385760008682601881106114c5576114c56122a3565b60200201511215611526576114dc600360126122d2565b6114e790600a6123d9565b6114f082610e72565b611505888460188110610a7c57610a7c6122a3565b61150f91906123e8565b61151991906123e8565b6115239083612274565b91505b80611530816122b9565b91505061149f565b5033600090815260208190526040902054811061158d5760405162461bcd60e51b81526020600482015260136024820152724e6f7420656e6f7567682062616c616e63657360681b6044820152606401610646565b6007546115a7906001600160a01b03166104e73382611195565b506007546115be906001600160a01b031682610739565b5082600583815481106115d3576115d36122a3565b906000526020600020906005020160020190805190602001906115f79291906119af565b50838560405160200161160b929190612407565b6040516020818303038152906040528051906020012060058381548110611634576116346122a3565b906000526020600020906005020160030181905550505050505050565b6001600160a01b0383166116b35760405162461bcd60e51b8152602060048201526024808201527f45524332303a20617070726f76652066726f6d20746865207a65726f206164646044820152637265737360e01b6064820152608401610646565b6001600160a01b0382166117145760405162461bcd60e51b815260206004820152602260248201527f45524332303a20617070726f766520746f20746865207a65726f206164647265604482015261737360f01b6064820152608401610646565b6001600160a01b0383811660008181526001602090815260408083209487168084529482529182902085905590518481527f8c5be1e5ebec7d5bd14f71427d1e84f3dd0314c0f7b2291e5b200ac8c7c3b925910160405180910390a3505050565b60006117818484611195565b905060001981146117e957818110156117dc5760405162461bcd60e51b815260206004820152601d60248201527f45524332303a20696e73756666696369656e7420616c6c6f77616e63650000006044820152606401610646565b6117e98484848403611651565b50505050565b6001600160a01b0383166118535760405162461bcd60e51b815260206004820152602560248201527f45524332303a207472616e736665722066726f6d20746865207a65726f206164604482015264647265737360d81b6064820152608401610646565b6001600160a01b0382166118b55760405162461bcd60e51b815260206004820152602360248201527f45524332303a207472616e7366657220746f20746865207a65726f206164647260448201526265737360e81b6064820152608401610646565b6001600160a01b0383166000908152602081905260409020548181101561192d5760405162461bcd60e51b815260206004820152602660248201527f45524332303a207472616e7366657220616d6f756e7420657863656564732062604482015265616c616e636560d01b6064820152608401610646565b6001600160a01b03848116600081815260208181526040808320878703905593871680835291849020805487019055925185815290927fddf252ad1be2c89b69c2b068fc378daa952ba7f163c4a11628f55a4df523b3ef910160405180910390a36117e9565b6000808212156119ab576119a682612468565b610616565b5090565b8280546119bb906121f9565b90600052602060002090601f0160209004810192826119dd5760008555611a23565b82601f106119f657805160ff1916838001178555611a23565b82800160010185558215611a23579182015b82811115611a23578251825591602001919060010190611a08565b506119ab929150611aed565b5080546000825590600052602060002090810190611a4d9190611aed565b50565b508054611a5c906121f9565b6000825580601f10611a6c575050565b601f016020900490600052602060002090810190611a4d9190611aed565b5080546000825560050290600052602060002090810190611a4d9190611b02565b5080546000825560060290600052602060002090810190611a4d9190611b4a565b5080546000825560070290600052602060002090810190611a4d9190611b97565b5b808211156119ab5760008155600101611aee565b808211156119ab5760008082556001820180546001600160a01b0319169055611b2e6002830182611a50565b506000600382015560048101805460ff19169055600501611b02565b5b808211156119ab5780546001600160a01b03199081168255600182018054909116905560006002820181905560038201819055600482015560058101805460ff19169055600601611b4b565b5b808211156119ab5780546001600160a01b0319908116825560018201805490911690556000600282018190556003820181905560048201819055600582015560068101805460ff19169055600701611b98565b6000815180845260005b81811015611c1157602081850181015186830182015201611bf5565b81811115611c23576000602083870101525b50601f01601f19169290920160200192915050565b602081526000611c4b6020830184611beb565b9392505050565b80356001600160a01b0381168114611c6957600080fd5b919050565b60008060408385031215611c8157600080fd5b611c8a83611c52565b946020939093013593505050565b600080600060608486031215611cad57600080fd5b611cb684611c52565b9250611cc460208501611c52565b9150604084013590509250925092565b600060208284031215611ce657600080fd5b5035919050565b60008060408385031215611d0057600080fd5b50508035926020909101359150565b634e487b7160e01b600052602160045260246000fd5b6001600160a01b0388811682528716602082015260408101869052606081018590526080810184905260a0810183905260e0810160038310611d7757634e487b7160e01b600052602160045260246000fd5b8260c083015298975050505050505050565b8581526001600160a01b038516602082015260a060408201819052600090611db390830186611beb565b6060830194909452509015156080909101529392505050565b634e487b7160e01b600052604160045260246000fd5b604051610300810167ffffffffffffffff81118282101715611e0657611e06611dcc565b60405290565b600082601f830112611e1d57600080fd5b611e25611de2565b80610300840185811115611e3857600080fd5b845b81811015611e52578035845260209384019301611e3a565b509095945050505050565b60006103008284031215611e7057600080fd5b611c4b8383611e0c565b600060208284031215611e8c57600080fd5b611c4b82611c52565b600082601f830112611ea657600080fd5b813567ffffffffffffffff80821115611ec157611ec1611dcc565b604051601f8301601f19908116603f01168101908282118183101715611ee957611ee9611dcc565b81604052838152866020858801011115611f0257600080fd5b836020870160208301376000602085830101528094505050505092915050565b60008060006106208486031215611f3857600080fd5b611f428585611e0c565b9250611f52856103008601611e0c565b915061060084013567ffffffffffffffff811115611f6f57600080fd5b611f7b86828701611e95565b9150509250925092565b602080825282518282018190526000919060409081850190868401855b82811015611ffe57815180516001600160a01b0390811686528782015116878601528581015186860152606080820151908601526080808201519086015260a09081015115159085015260c09093019290850190600101611fa2565b5091979650505050505050565b600080600080600060a0868803121561202357600080fd5b61202c86611c52565b945061203a60208701611c52565b94979496505050506040830135926060810135926080909101359150565b60006020808301818452808551808352604092508286019150828160051b87010184880160005b838110156120ec57888303603f19018552815180518452878101516001600160a01b0316888501528681015160a0888601819052906120c082870182611beb565b60608481015190880152608093840151151593909601929092525050938601939086019060010161207f565b509098975050505050505050565b60008060006060848603121561210f57600080fd5b833567ffffffffffffffff81111561212657600080fd5b61213286828701611e95565b9350506020840135915060408401356002811061214e57600080fd5b809150509250925092565b6000806040838503121561216c57600080fd5b61217583611c52565b915061218360208401611c52565b90509250929050565b60008060008061064085870312156121a357600080fd5b843593506121b48660208701611e0c565b92506121c4866103208701611e0c565b915061062085013567ffffffffffffffff8111156121e157600080fd5b6121ed87828801611e95565b91505092959194509250565b600181811c9082168061220d57607f821691505b60208210810361222d57634e487b7160e01b600052602260045260246000fd5b50919050565b60208082526011908201527043616c6c6572206973206e6f742044534f60781b604082015260600190565b634e487b7160e01b600052601160045260246000fd5b600082198211156122875761228761225e565b500190565b60008282101561229e5761229e61225e565b500390565b634e487b7160e01b600052603260045260246000fd5b6000600182016122cb576122cb61225e565b5060010190565b600060ff821660ff8416808210156122ec576122ec61225e565b90039392505050565b600181815b808511156123305781600019048211156123165761231661225e565b8085161561232357918102915b93841c93908002906122fa565b509250929050565b60008261234757506001610616565b8161235457506000610616565b816001811461236a576002811461237457612390565b6001915050610616565b60ff8411156123855761238561225e565b50506001821b610616565b5060208310610133831016604e8410600b84101617156123b3575081810a610616565b6123bd83836122f5565b80600019048211156123d1576123d161225e565b029392505050565b6000611c4b60ff841683612338565b60008160001904831182151516156124025761240261225e565b500290565b60008184825b601881101561242c57815183526020928301929091019060010161240d565b50505061030082018360005b6018811015612457578151835260209283019290910190600101612438565b505050610600820190509392505050565b6000600160ff1b820161247d5761247d61225e565b506000039056fea26469706673582212204ae733b4ed00799cafec0ecb8c0eaf42b0ecc1a8662e23f190ad0c0b5feba3f664736f6c634300080d0033",
  "immutableReferences": {},
  "source": "// SPDX-License-Identifier: MIT\r\n\r\npragma solidity ^0.8.0; \r\n\r\nimport \"@openzeppelin/contracts/token/ERC20/ERC20.sol\";\r\n\r\ncontract DLEM is ERC20{\r\n\r\n    struct Transaction {\r\n        address owner;\r\n        address counterparty; // O outro lado da transao, seja comprador ou vendedor\r\n        uint tslot;\r\n        uint256 quantity;\r\n        uint256 price;\r\n        bool settled;\r\n    }\r\n\r\n    struct Bid {\r\n        uint bid_num;\r\n        address bidder;\r\n        string ipfsCid;\r\n        bytes32 dataHash;\r\n        bool valid;\r\n    }\r\n\r\n    Bid[] public bids;\r\n    Transaction[] public Transactions;\r\n    uint constant TEFsize = 24;\r\n    enum Role{Consumer, Prosumer}\r\n    enum Billstatus{Unpaid, Partialpaid, Fullpaid}\r\n    address private DSO;\r\n    event LEMstart(uint256 stime, uint256 etime);\r\n    event LEMend(uint256[TEFsize] MCP, uint256[TEFsize] MCQ, uint256 etime);\r\n    event NewBid(Bid bid);\r\n\r\n    mapping(address => bool) user_bid;\r\n    mapping(address => bool) user_reg;\r\n    address[] wallets;\r\n\r\n    struct Users_ID{\r\n        address wallet;\r\n        string ID;\r\n        bytes32 _hash;\r\n        Role _role;\r\n    }\r\n\r\n    struct energy_matched{ \r\n        address prosumer; \r\n        address consumer;\r\n        uint256 demand; \r\n        uint256 amount;\r\n        uint256 m_amount;  \r\n        uint256 price;\r\n        Billstatus billed;\r\n    }\r\n\r\n    uint endLEM;\r\n    uint256[TEFsize] MCP;\r\n    uint256[TEFsize] MCQ;\r\n    uint256[] Rprice;\r\n    mapping(address => Users_ID) Clients;\r\n    mapping(uint => energy_matched[]) public energy_matches;\r\n\r\n    constructor() ERC20(\"LEMtoken\", \"LET\"){\r\n        DSO = msg.sender;\r\n        _mint(msg.sender, 10000000 * (10**decimals()));\r\n    }\r\n\r\n    modifier OnlyDSO(){\r\n        require(msg.sender == DSO, \"Caller is not DSO\");\r\n        _;\r\n    }\r\n\r\n    function Register(string memory _id, bytes32 _hash, Role _role) public{\r\n        require(endLEM > block.timestamp + 1 minutes, \"Market closed\");\r\n        require(user_reg[msg.sender] == false, \"Address already registered\");\r\n        Clients[msg.sender] = Users_ID(msg.sender, _id, _hash, _role);\r\n        wallets.push() = msg.sender;\r\n        user_bid[msg.sender] = false;\r\n        user_reg[msg.sender] = true;\r\n    }\r\n\r\n    function startLEM() public OnlyDSO { \r\n        for(uint k=0; k < wallets.length; k++){\r\n            delete Clients[wallets[k]];\r\n            delete user_bid[wallets[k]];\r\n            delete user_reg[wallets[k]];\r\n        }\r\n        delete wallets;\r\n        delete bids;\r\n        delete Transactions;\r\n        for(uint i=0; i < TEFsize; i++)\r\n            delete energy_matches[i];\r\n        uint t = 30 minutes; \r\n        endLEM = t + block.timestamp;\r\n        emit LEMstart(block.timestamp,endLEM); \r\n    }\r\n\r\n    function submitBid(int256[TEFsize] memory _amount, uint256[TEFsize] memory _price, string memory ipfsCid) public {\r\n        if (block.timestamp > endLEM) revert(\"Cannot bid with LEM closed\");\r\n        require(user_reg[msg.sender], \"Address must be registered\");\r\n        require(user_bid[msg.sender] == false, \"Address already bid\");\r\n        uint256 totalbuy = 0;\r\n        uint256 bid_num = 0;\r\n\r\n        if(bids.length == 0){\r\n            bid_num = 0;\r\n        }\r\n        else{\r\n            bid_num = bids[bids.length -1].bid_num + 1;\r\n        }\r\n        for(uint i = 0; i <= (TEFsize - 1); i++){\r\n            if(_amount[i] < 0){\r\n                totalbuy += (uint256(abs(_amount[i]))*getRetailPrice(i)*(10**(decimals()-3)));\r\n            }\r\n        }\r\n        //require(balanceOf(msg.sender) > totalbuy, \"Not enough balances\");\r\n        //decreaseAllowance(DSO, allowance(msg.sender, DSO));\r\n        //increaseAllowance(DSO,totalbuy);  \r\n        bytes32 dataHash = keccak256(abi.encodePacked(_price, _amount));\r\n        \r\n   \r\n        //Bid memory newBid = \r\n        // newBid.bid_num = bid_num; \r\n        // newBid.bidder = msg.sender;\r\n        // newBid.ipfsCid = ipfsCid;\r\n        // newBid.dataHash = dataHash;\r\n        // newBid.valid = true;\r\n        bids.push() = Bid(bid_num,msg.sender,ipfsCid,dataHash, true);\r\n    }\r\n\r\n    function RequestBidUpdate(uint bid_num, int256[TEFsize] memory _amount, uint256[TEFsize] memory _price, string memory newipfsCid) public{\r\n        require(user_bid[msg.sender] == true, \"Address not bidded\");\r\n        int256 index = -1;\r\n        for(uint i = 0; i < bids.length; i++) {\r\n            if(bids[i].bid_num == bid_num) {\r\n                index = int256(i);\r\n                break;\r\n            }\r\n        }\r\n        require(index >= 0, \"Bid not found\");\r\n        uint256 totalbuy = 0;\r\n        for(uint i = 0; i <= (TEFsize - 1); i++){\r\n            if(_amount[i] < 0){\r\n                totalbuy += (uint256(abs(_amount[i]))*getRetailPrice(i)*(10**(decimals()-3)));\r\n            }\r\n        }\r\n        require(balanceOf(msg.sender) > totalbuy, \"Not enough balances\");\r\n        decreaseAllowance(DSO, allowance(msg.sender, DSO));\r\n        increaseAllowance(DSO,totalbuy);  \r\n        bids[uint256(index)].ipfsCid = newipfsCid;\r\n        bids[uint256(index)].dataHash = keccak256(abi.encodePacked(_price, _amount));\r\n    }\r\n\r\n    function closeLEM() public OnlyDSO{\r\n        endLEM = block.timestamp; \r\n    }\r\n\r\n    function setRetailPrice(uint256[TEFsize] memory _rprice) public OnlyDSO{\r\n        if(msg.sender != DSO) revert(); \r\n        if(Rprice.length > 0)\r\n            delete Rprice;\r\n        for(uint i = 0; i <= (TEFsize - 1); i++){\r\n            Rprice.push() = _rprice[i];\r\n        }\r\n    }\r\n\r\n\r\n    function getRetailPrice(uint tslot)  public view returns(uint256){\r\n        return Rprice[tslot];\r\n    }\r\n\r\n    function setLastMCP(uint256[TEFsize] memory mcp) public OnlyDSO {\r\n        require(mcp.length == TEFsize);\r\n        for(uint i = 0; i <= (TEFsize - 1); i++){\r\n            MCP[i] = mcp[i];\r\n        }\r\n    }\r\n\r\n    function setLastMCQ(uint256[TEFsize] memory mcq) public OnlyDSO {\r\n        require(mcq.length == TEFsize);\r\n        for(uint i = 0; i <= (TEFsize - 1); i++){\r\n            MCQ[i] = mcq[i];\r\n        }\r\n    }\r\n\r\n    function getBids() public view returns (Bid[] memory){\r\n        return bids;\r\n    }\r\n\r\n    function getBidsLength() public view returns (uint){\r\n        return bids.length;\r\n    }\r\n\r\n    function addTransaction(\r\n        address _owner,\r\n        address _counterparty,\r\n        uint _tslot,\r\n        uint256 _quantity,\r\n        uint256 _price\r\n    ) public {\r\n        Transactions.push(Transaction(_owner, _counterparty, _tslot, _quantity, _price, false));\r\n    }\r\n\r\n    function getTransactions() public view returns (Transaction[] memory){\r\n        return Transactions;\r\n    }\r\n    \r\n    function abs(int256 x) private pure returns (int256) {\r\n        return x >= 0 ? x : -x;\r\n    }\r\n\r\n    function max(uint256 a, uint256 b) internal pure returns (uint256) {\r\n        return a > b ? a : b;\r\n    }\r\n\r\n    function min(uint256 a, uint256 b) internal pure returns (uint256) {\r\n        return a < b ? a : b;\r\n    }\r\n\r\n}",
  "sourcePath": "D:\\Github Projects\\Matblockpy\\examples\\IEEE9Bus-DistributedGen\\contracts\\DLEM.sol",
  "compiler": {
    "name": "solc",
    "version": "0.8.13+commit.abaa5c0e.Emscripten.clang"
  },
  "schemaVersion": "3.4.7",
  "updatedAt": "2024-04-02T23:25:15.282Z",
  "networkType": "ethereum",
  "devdoc": {
    "kind": "dev",
    "methods": {
      "allowance(address,address)": {
        "details": "See {IERC20-allowance}."
      },
      "approve(address,uint256)": {
        "details": "See {IERC20-approve}. NOTE: If `amount` is the maximum `uint256`, the allowance is not updated on `transferFrom`. This is semantically equivalent to an infinite approval. Requirements: - `spender` cannot be the zero address."
      },
      "balanceOf(address)": {
        "details": "See {IERC20-balanceOf}."
      },
      "decimals()": {
        "details": "Returns the number of decimals used to get its user representation. For example, if `decimals` equals `2`, a balance of `505` tokens should be displayed to a user as `5.05` (`505 / 10 ** 2`). Tokens usually opt for a value of 18, imitating the relationship between Ether and Wei. This is the default value returned by this function, unless it's overridden. NOTE: This information is only used for _display_ purposes: it in no way affects any of the arithmetic of the contract, including {IERC20-balanceOf} and {IERC20-transfer}."
      },
      "decreaseAllowance(address,uint256)": {
        "details": "Atomically decreases the allowance granted to `spender` by the caller. This is an alternative to {approve} that can be used as a mitigation for problems described in {IERC20-approve}. Emits an {Approval} event indicating the updated allowance. Requirements: - `spender` cannot be the zero address. - `spender` must have allowance for the caller of at least `subtractedValue`."
      },
      "increaseAllowance(address,uint256)": {
        "details": "Atomically increases the allowance granted to `spender` by the caller. This is an alternative to {approve} that can be used as a mitigation for problems described in {IERC20-approve}. Emits an {Approval} event indicating the updated allowance. Requirements: - `spender` cannot be the zero address."
      },
      "name()": {
        "details": "Returns the name of the token."
      },
      "symbol()": {
        "details": "Returns the symbol of the token, usually a shorter version of the name."
      },
      "totalSupply()": {
        "details": "See {IERC20-totalSupply}."
      },
      "transfer(address,uint256)": {
        "details": "See {IERC20-transfer}. Requirements: - `to` cannot be the zero address. - the caller must have a balance of at least `amount`."
      },
      "transferFrom(address,address,uint256)": {
        "details": "See {IERC20-transferFrom}. Emits an {Approval} event indicating the updated allowance. This is not required by the EIP. See the note at the beginning of {ERC20}. NOTE: Does not update the allowance if the current allowance is the maximum `uint256`. Requirements: - `from` and `to` cannot be the zero address. - `from` must have a balance of at least `amount`. - the caller must have allowance for ``from``'s tokens of at least `amount`."
      }
    },
    "version": 1
  },
  "userdoc": {
    "kind": "user",
    "methods": {},
    "version": 1
  }
}